:100000000C9456000C9475000C9475000C947500BB
:100010000C9475000C9475000C9475000C9475008C
:100020000C9475000C9475000C9475000C9475007C
:100030000C9475000C94EE000C9475000C947500F3
:100040000C9475000C9475000C9475000C9475005C
:100050000C9475000C9475000C9475000C9475004C
:100060000C9475000C9475000C9475000C9475003C
:100070000C9475000C9475000C9475000C9475002C
:100080000C9475000C9475000C94750098019F01F8
:10009000D601F30110022D023F0251028A027802BA
:1000A0007C02800284028A028A028A0211241FBE14
:1000B000CFEFD0E4DEBFCDBF11E0A0E0B1E0E6EBD2
:1000C000F5E000E00BBF02C007900D92A431B1072C
:1000D000D9F721E0A4E1B1E001C01D92AE31B20731
:1000E000E1F70E948F020C94D9020C940000CF9388
:1000F000DF9300D01F92CDB7DEB789837B836A83FD
:1001000089818A3031F48A819B81BC018DE00E9413
:10011000770080EC90E0FC018081882F90E0807275
:100120009927892BB1F386EC90E02981FC0120838B
:1001300080E090E00F900F900F90DF91CF910895A5
:10014000CF93DF93CDB7DEB781E890E02BE0FC01E1
:10015000208388E890E02DE730E0FC0131832083A4
:100160008FE690E022E0FC01208384E890E0FC012F
:100170001182108280910E0190910F01A0911001C7
:10018000B09111018093150190931601A09317016E
:10019000B09318018FE590E02FE530E0F901208160
:1001A0002068FC0120830000DF91CF910895CF9358
:1001B000DF93CDB7DEB781E890E0FC01108200004C
:1001C000DF91CF910895CF93DF93CDB7DEB781E074
:1001D000809314010000DF91CF9108951F920F9238
:1001E00000905F000F92112400905B000F922F93FC
:1001F0003F934F935F936F937F938F939F93AF93AF
:10020000BF93EF93FF93CF93DF93CDB7DEB780918A
:10021000150190911601A0911701B0911801019755
:10022000A109B1098093150190931601A0931701BC
:10023000B09318018091150190911601A0911701BA
:10024000B0911801892B8A2B8B2B91F40E94E3002B
:1002500080910E0190910F01A0911001B0911101B8
:100260008093150190931601A0931701B093180184
:100270000000DF91CF91FF91EF91BF91AF919F91DE
:100280008F917F916F915F914F913F912F910F903F
:1002900000925B000F9000925F000F901F901895E6
:1002A000CF93DF9300D000D0CDB7DEB769837A83D8
:1002B0008B839C8389819A81AB81BC8180930E0161
:1002C00090930F01A0931001B093110180910E0142
:1002D00090910F01A0911001B0911101809315012F
:1002E00090931601A0931701B093180100000F908E
:1002F0000F900F900F90DF91CF910895CF93DF93E0
:10030000CDB7DEB780911C0190911D01CC01A0E01A
:10031000B0E040E050E027E030E0841B950B281768
:10032000390708F4CBC08A5B9F4FFC010C94D002C4
:1003300081E090E090931D0180931C01C4C08091E6
:100340001B01882319F481E08093120180911B0125
:10035000882379F080911A01882359F48091120141
:10036000813039F485E090E090931D0180931C0169
:100370001CC080911B01882379F080911A01813083
:1003800059F41092120110921A0182E090E09093B9
:100390001D0180931C0109C010921A0182E090E0B7
:1003A00090931D0180931C018EC08DC080911B0114
:1003B000882319F481E08093120180911B01882326
:1003C00059F080911201813039F485E090E09093EA
:1003D0001D0180931C0177C083E090E090931D0184
:1003E00080931C0170C080911B01882319F481E067
:1003F0008093120180911B01882359F08091120192
:10040000813039F485E090E090931D0180931C01C8
:100410005AC084E090E090931D0180931C0153C06A
:1004200080911B01882319F481E08093120180914F
:100430001B01882359F080911201813039F485E045
:1004400090E090931D0180931C013DC081E090E0FD
:1004500090931D0180931C0136C080911B0188235D
:1004600039F486E090E090931D0180931C012BC02D
:1004700085E090E090931D0180931C0124C0809141
:100480001B01882339F087E090E090931D01809351
:100490001C0119C086E090E090931D0180931C011F
:1004A00012C081E08093120181E080931A0181E003
:1004B00090E090931D0180931C0105C010921D01D6
:1004C00010921C01000080911C0190911D01CC0133
:1004D000A0E0B0E040E050E027E030E0841B950B66
:1004E00028173907A8F0825B9F4FFC010C94D002BB
:1004F00081E0809319010FC082E0809319010BC045
:1005000084E08093190107C082E08093190103C041
:10051000000001C000000000DF91CF910895CF934B
:10052000DF93CDB7DEB781E290E0FC01108282E27A
:1005300090E02FEFFC01208384E290E02FEFFC019C
:10054000208385E290E0FC0110826CE271E080E0A3
:1005500090E00E9450010E94A00010921D01109294
:100560001C0180E290E0FC018081882F90E0817086
:10057000992721E0892B09F020E0822F80931B012D
:100580000E947E010000809114018823E1F3109203
:10059000140185E290E020911901FC012083E1CF54
:1005A000EE0FFF1F0024001C0BBE0790F691E02DFC
:0605B0000994F894FFCF4E
:1005B60000000002000000007700000000000100BB
:0405C6000000010030
:00000001FF
