:100000000C9446000C9465000C9465000C946500FB
:100010000C9465000C9465000C9465000C946500CC
:100020000C9465000C9465000C9465000C946500BC
:100030000C9465000C94DE000C9465000C94650033
:100040000C9465000C9465000C9465000C9465009C
:100050000C9465000C9465000C9465000C9465008C
:100060000C9465000C9465000C9465000C9465007C
:100070000C9465000C9465000C9465000C9465006C
:100080000C9465000C9465000C94650011241FBE4F
:10009000CFEFD0E4DEBFCDBF11E0A0E0B1E0ECE7F0
:1000A000F5E000E00BBF02C007900D92A231B1074E
:1000B000D9F721E0A2E1B1E001C01D92AD31B20754
:1000C000E1F70E9470020C94BC020C940000CF93E4
:1000D000DF9300D01F92CDB7DEB789837B836A831D
:1000E00089818A3031F48A819B81BC018DE00E9434
:1000F000670080EC90E0FC018081882F90E08072A6
:100100009927892BB1F386EC90E02981FC012083AB
:1001100080E090E00F900F900F90DF91CF910895C5
:10012000CF93DF93CDB7DEB781E890E02BE0FC0101
:10013000208388E890E02DE730E0FC0131832083C4
:100140008FE690E022E0FC01208384E890E0FC014F
:100150001182108280910E0190910F01A0911001E7
:10016000B09111018093130190931401A093150194
:10017000B09316018FE590E02FE530E0F901208182
:100180002068FC0120830000DF91CF910895CF9378
:10019000DF93CDB7DEB781E890E0FC01108200006C
:1001A000DF91CF910895CF93DF93CDB7DEB781E094
:1001B000809312010000DF91CF9108951F920F925A
:1001C00000905F000F92112400905B000F922F931C
:1001D0003F934F935F936F937F938F939F93AF93CF
:1001E000BF93EF93FF93CF93DF93CDB7DEB78091AB
:1001F000130190911401A0911501B091160101977E
:10020000A109B1098093130190931401A0931501E2
:10021000B09316018091130190911401A0911501E2
:10022000B0911601892B8A2B8B2B91F40E94D3005D
:1002300080910E0190910F01A0911001B0911101D8
:100240008093130190931401A0931501B0931601AC
:100250000000DF91CF91FF91EF91BF91AF919F91FE
:100260008F917F916F915F914F913F912F910F905F
:1002700000925B000F9000925F000F901F90189506
:10028000CF93DF9300D000D0CDB7DEB769837A83F8
:100290008B839C8389819A81AB81BC8180930E0181
:1002A00090930F01A0931001B093110180910E0162
:1002B00090910F01A0911001B09111018093130151
:1002C00090931401A0931501B093160100000F90B4
:1002D0000F900F900F90DF91CF910895CF93DF9300
:1002E000CDB7DEB78091190190911A018230910546
:1002F00061F18330910528F4009751F0019779F06E
:100300006DC083309105B9F1049709F44AC066C005
:1003100084E090E090931A018093190167C0809166
:100320001B01882331F083E090E090931A018093C1
:10033000190180911C01882309F055C084E090E0E8
:1003400090931A01809319014EC080911C0188235B
:1003500031F083E090E090931A018093190180912D
:100360001B01882309F041C084E090E090931A01BA
:10037000809319013AC080911C01882359F480911F
:100380001B01882339F484E090E090931A01809354
:1003900019012CC083E090E090931A018093190119
:1003A00025C080911C01882339F081E090E0909372
:1003B0001A01809319011AC080911B01882339F01A
:1003C00082E090E090931A01809319010FC084E0BD
:1003D00090E090931A018093190108C010921A01BD
:1003E0001092190103C0000001C0000080911901A2
:1003F00090911A0182309105D1F18330910530F44A
:10040000009709F464C0019749F066C083309105F4
:1004100009F455C0049709F457C05EC080911801D3
:10042000882371F480911701893050F4809117016D
:100430008F5F80931701809118018F5F809318015F
:10044000809118018F5F8093180180911801843684
:1004500009F03FC0809117018930D8F580911701CC
:100460008F5F8093170181E08093180132C08091E3
:100470001801882371F480911701882351F080912D
:100480001701815080931701809118018F5F80932D
:100490001801809118018F5F8093180180911801D5
:1004A0008436C9F4809117018823A9F0809117013F
:1004B00081508093170181E0809318010CC0109245
:1004C00017011092180108C01092180105C0000011
:1004D00003C0000001C000000000DF91CF9108952B
:1004E000CF93DF93CDB7DEB781E290E0FC011082BD
:1004F00082E290E02FEFFC01208384E290E02FEF76
:10050000FC01208385E290E0FC01108264E670E04B
:1005100080E090E00E9440010E94900010921A0139
:100520001092190187E08093170180E290E0FC01AE
:100530008081882F90E08170992721E0892B09F034
:1005400020E0822F80931C0180E290E0FC018081FA
:100550008095827080931B010E946E010000809143
:1005600012018823E1F31092120185E290E02091BC
:0C0570001701FC012083D9CFF894FFCFC5
:10057C000000000200000000670000000000010005
:02058C0000006D
:00000001FF
