:100000000C945A000C9479000C9479000C947900AB
:100010000C9479000C9479000C9479000C9479007C
:100020000C9479000C9479000C9479000C9479006C
:100030000C9479000C94F2000C9479000C947900E3
:100040000C9479000C9479000C9479000C9479004C
:100050000C9479000C9479000C9479000C9479003C
:100060000C9479000C9479000C9479000C9479002C
:100070000C9479000C9479000C9479000C9479001C
:100080000C9479000C9479000C9479009C01A301E4
:10009000B501C701D901EB01FD010F0221023302B5
:1000A00085025F02630267026B026F0273027702CE
:1000B0007B027F0211241FBECFEFD0E4DEBFCDBF95
:1000C00011E0A0E0B1E0ECEAF5E000E00BBF02C017
:1000D00007900D92A231B107D9F721E0A2E1B1E07A
:1000E00001C01D92AB31B207E1F70E948A020C9465
:1000F000D4020C940000CF93DF9300D01F92CDB7B1
:10010000DEB789837B836A8389818A3031F48A816F
:100110009B81BC018DE00E947B0080EC90E0FC01A3
:100120008081882F90E080729927892BB1F386EC2B
:1001300090E02981FC01208380E090E00F900F90F7
:100140000F90DF91CF910895CF93DF93CDB7DEB7B6
:1001500081E890E02BE0FC01208388E890E02DE727
:1001600030E0FC01318320838FE690E022E0FC0147
:10017000208384E890E0FC011182108280910E01BE
:1001800090910F01A0911001B09111018093130182
:1001900090931401A0931501B09316018FE590E0A0
:1001A0002FE530E0F90120812068FC012083000068
:1001B000DF91CF910895CF93DF93CDB7DEB781E87C
:1001C00090E0FC0110820000DF91CF910895CF9361
:1001D000DF93CDB7DEB781E0809312010000DF919D
:1001E000CF9108951F920F9200905F000F921124FB
:1001F00000905B000F922F933F934F935F936F9309
:100200007F938F939F93AF93BF93EF93FF93CF937E
:10021000DF93CDB7DEB78091130190911401A091C7
:100220001501B09116010197A109B109809313013D
:1002300090931401A0931501B093160180911301BE
:1002400090911401A0911501B0911601892B8A2B70
:100250008B2B91F40E94E70080910E0190910F0189
:10026000A0911001B091110180931301909314019A
:10027000A0931501B09316010000DF91CF91FF917B
:10028000EF91BF91AF919F918F917F916F915F910E
:100290004F913F912F910F9000925B000F90009231
:1002A0005F000F901F901895CF93DF9300D000D080
:1002B000CDB7DEB769837A838B839C8389819A81EA
:1002C000AB81BC8180930E0190930F01A09310012C
:1002D000B093110180910E0190910F01A091100136
:1002E000B09111018093130190931401A093150113
:1002F000B093160100000F900F900F900F90DF91B8
:10030000CF910895CF93DF93CDB7DEB780911901D8
:1003100090911A01CC01A0E0B0E040E050E029E06B
:1003200030E0841B950B2817390708F4AEC08A5BB0
:100330009F4FFC010C94CB0281E090E090931A0156
:1003400080931901A7C080911801882339F084E0B7
:1003500090E090931A01809319019CC082E090E094
:1003600090931A018093190195C0809118018823F8
:1003700039F085E090E090931A01809319018AC0CA
:1003800083E090E090931A018093190183C08091DB
:100390001801882339F086E090E090931A01809349
:1003A000190178C081E090E090931A0180931901BF
:1003B00071C080911801882339F087E090E0909314
:1003C0001A018093190166C084E090E090931A01AD
:1003D000809319015FC080911801882339F088E06B
:1003E00090E090931A018093190154C085E090E049
:1003F00090931A01809319014DC0809118018823B0
:1004000039F089E090E090931A018093190142C07D
:1004100086E090E090931A01809319013BC080918F
:100420001801882339F481E090E090931A018093B9
:10043000190130C087E090E090931A018093190170
:1004400029C080911801882339F481E090E09093CD
:100450001A01809319011EC088E090E090931A0160
:100460008093190117C080911801882339F481E025
:1004700090E090931A01809319010CC089E090E0FC
:1004800090931A018093190105C010921A011092DD
:10049000190100008091190190911A01CC01A0E08E
:1004A000B0E040E050E029E030E0841B950B2817D5
:1004B000390748F1805B9F4FFC010C94CB0281E02F
:1004C0008093170123C082E0809317011FC084E04E
:1004D000809317011BC081E08093170117C082E051
:1004E0008093170113C084E0809317010FC081E04F
:1004F000809317010BC082E08093170107C084E04E
:100500008093170103C0000001C000000000DF91CC
:10051000CF910895CF93DF93CDB7DEB781E290E01E
:10052000FC01108282E290E02FEFFC01208384E244
:1005300090E02FEFFC01208385E290E0FC01108227
:100540006CE271E080E090E00E9454010E94A400FF
:1005500010921A011092190180E290E0FC01808152
:10056000882F90E08170992721E0892B09F020E005
:10057000822F809318010E94820185E290E02091F1
:100580001701FC0120830000809112018823E1F310
:1005900010921201E1CFEE0FFF1F0024001C0BBED2
:0C05A0000790F691E02D0994F894FFCF2D
:1005AC0000000002000000007B00000000000100C1
:0205BC0000003D
:00000001FF
